:100000000C9463000C9490040C9469040C948B0081
:100010000C948B000C948B000C948B000C948B0034
:100020000C948B000C948B000C948B000C948B0024
:100030000C948B000C948B000C948B000C948B0014
:100040000C941F040C948B000C94ED030C94C703C8
:100050000C948B000C948B000C948B000C948B00F4
:100060000C948B000C948B000000000023002600F1
:10007000290000000000240027002A0000000000E2
:10008000250028002B0004040404040404040202D4
:100090000202020203030303030301020408102007
:1000A0004080010204081020010204081020000012
:1000B0000008000201000003040700000000000027
:1000C00000000005330611241FBECFEFD8E0DEBFCD
:1000D000CDBF11E0A0E0B1E0EAE0FFE002C0059092
:1000E0000D92A232B107D9F722E0A2E2B1E001C03D
:1000F0001D92A731B207E1F710E0C2E6D0E004C0DC
:100100002197FE010E944D06C136D107C9F70E9412
:1001100034050C9478070C940000AF92BF92CF92F4
:10012000DF92EF92FF920F931F93CF93DF936C01B7
:100130007B018B01040F151FEB015E01AE18BF0898
:10014000C017D10759F06991D601ED91FC9101904A
:10015000F081E02DC6010995892B79F7C501DF9162
:10016000CF911F910F91FF90EF90DF90CF90BF90B4
:10017000AF900895FC01538D448D252F30E0842FDE
:1001800090E0821B930B541710F0CF9608950197BF
:100190000895FC01918D828D981761F0A28DAE0FAC
:1001A000BF2FB11D5D968C91928D9F5F9F73928F33
:1001B00090E008958FEF9FEF0895FC01918D828D5F
:1001C000981731F0828DE80FF11D858D90E008952C
:1001D0008FEF9FEF0895FC01918D228D892F90E084
:1001E000805C9F4F821B91098F73992708958CE340
:1001F00091E00E94EB0021E0892B09F420E0822F9E
:10020000089580E090E0892B29F00E94F700811189
:100210000C9400000895FC01A48DA80FB92FB11D06
:10022000A35ABF4F2C91848D90E001968F7399272C
:10023000848FA689B7892C93A089B1898C9183700A
:1002400080648C93938D848D981306C00288F38903
:10025000E02D80818F7D80830895EF92FF920F9330
:100260001F93CF93DF93EC0181E0888F9B8D8C8D62
:1002700098131AC0E889F989808185FF15C09FB756
:10028000F894EE89FF896083E889F9898081837019
:10029000806480839FBF81E090E0DF91CF911F91C8
:1002A0000F91FF90EF900895F62E0B8D10E00F5FE9
:1002B0001F4F0F731127E02E8C8D8E110CC00FB6BF
:1002C00007FCFACFE889F989808185FFF5CFCE0157
:1002D0000E940B01F1CFEB8DEC0FFD2FF11DE35AC6
:1002E000FF4FF0829FB7F8940B8FEA89FB898081DA
:1002F0008062CFCFCF93DF93EC01888D8823B9F054
:10030000AA89BB89E889F9898C9185FD03C0808120
:1003100086FD0DC00FB607FCF7CF8C9185FFF2CF9D
:10032000808185FFEDCFCE010E940B01E9CFDF91E7
:10033000CF910895833081F028F4813099F0823094
:10034000A9F008958730A9F08830C9F08430B1F45D
:10035000809180008F7D03C0809180008F77809393
:100360008000089584B58F7784BD089584B58F7D0E
:10037000FBCF8091B0008F778093B000089580917B
:10038000B0008F7DF9CF1F93CF93DF93282F30E0FC
:10039000F901E255FF4F8491F901E656FF4FD491E0
:1003A000F901EA57FF4FC491CC23A9F0162F811110
:1003B0000E949A01EC2FF0E0EE0FFF1FE458FF4F70
:1003C000A591B4918FB7F894EC91111108C0D09514
:1003D000DE23DC938FBFDF91CF911F910895DE2B39
:1003E000F8CFCF93DF9390E0FC01E656FF4F2491C6
:1003F0008A579F4FFC0184918823D1F090E0880FA9
:10040000991FFC01EE58FF4FA591B491FC01E458EF
:10041000FF4FC591D491623071F49FB7F8943C912D
:10042000822F809583238C93E8812E2B28839FBF76
:10043000DF91CF9108958FB7F894EC912E2B2C93E8
:100440008FBFF6CF08958091290181110BC01092C2
:10045000280110922701109226011092250181E0B7
:100460008093290185E291E00895DC015996ED9190
:10047000FC91309709F009940895CF93DF93EC0134
:100480008A85882349F12FB7F8948091360190919D
:100490003701A0913801B09139012FBF8E839F831E
:1004A000A887B987288D2223B9F0488959896A8994
:1004B0007B89841B950BA60BB70B4C855D856E85E0
:1004C0007F8584179507A607B70730F08C899D892B
:1004D000009729F41A861B86DF91CF91089518168C
:1004E00019061CF401979D8B8C8BCE010E9435025E
:1004F0008E819F81A885B985888B998BAA8BBB8BB0
:10050000EBCFFC01128613862FB7F8948091360149
:1005100090913701A0913801B09139012FBF8283AA
:100520009383A483B58386839783A087B187808BC9
:10053000918BA28BB38B838D948D4487558766876F
:100540007787892B09F049C081E090E0958B848BF7
:10055000978B868B808F83852FB7882309F445C0BE
:10056000F8948091360190913701A0913801B091B3
:1005700039012FBF26813781821B930B2FB7F89447
:1005800040913601509137016091380170913901E5
:100590002FBF4683578360877187092E000CAA0BF3
:1005A000BB0B4281538164817581480F591F6A1FBB
:1005B0007B1F428353836483758340895189628999
:1005C0007389840F951FA61FB71F808B918BA28BF9
:1005D000B38B81E08287138608958FEF9FEF958B11
:1005E000848B978B868B81E0B5CFF8948091360110
:1005F00090913701A0913801B09139012FBF8283CA
:100600009383A483B58386839783A087B187808BE8
:10061000918BA28BB38B86899789958B848BD9CF4D
:100620008091240181110AC081E08093240160E05F
:1006300089E00E94C30110923A01089510922401AA
:1006400061E0F6CF8091230181110AC081E080939F
:10065000230160E087E00E94C30110923A010895EF
:100660001092230161E0F6CFCF93DF93E0EBF0E04F
:100670008491ECE9F0E0D491E8E8F0E0C491CC2377
:1006800081F081110E949A01EC2FF0E0EE0FFF1F24
:10069000E859FF4FA591B491EC91ED23C1E009F425
:1006A000C0E0C0933B0180913A018130A9F028F06D
:1006B000823011F1DF91CF910895C111FBCF81E01C
:1006C00080933A0148EE53E060E070E089ED91E0FC
:1006D000DF91CF910C948102CC2361F382E080936F
:1006E0003A011092E3011092E40148EC50E060E01E
:1006F00070E086EF91E0ECCFC111DCCF10923A01AF
:10070000109200021092010280912201811109C011
:1007100081E08093220160E088E0DF91CF910C942A
:10072000C3011092220161E0F7CFCF93DF93EC0178
:1007300088819981FC01B0E0A0E0309731F12281FD
:10074000338126173707E1F4109729F02081318192
:1007500011963C932E932A813B812E173F0711F46B
:10076000BB83AA83E817F90721F4808191819983DB
:100770008883CF010E94EF0681E0DF91CF91089539
:10078000DF010190F081E02DD8CF80E0F6CF1F92FD
:100790000F920FB60F9211242F933F934F935F93B5
:1007A0006F937F938F939F93AF93BF93EF93FF9339
:1007B0008CE391E00E940B01FF91EF91BF91AF910B
:1007C0009F918F917F916F915F914F913F912F9169
:1007D0000F900FBE0F901F9018951F920F920FB69B
:1007E0000F9211242F938F939F93EF93FF93E09198
:1007F0004C01F0914D018081E0915201F091530143
:1008000082FD1BC09081809155018F5F8F73209175
:100810005601821741F0E0915501F0E0E45CFE4F93
:10082000958F80935501FF91EF919F918F912F911B
:100830000F900FBE0F901F9018958081F4CF1F92DC
:100840000F920FB60F9211242F933F938F939F9384
:10085000AF93BF938091360190913701A0913801F9
:10086000B09139013091350123E0230F2D3758F530
:100870000196A11DB11D20933501809336019093FF
:100880003701A0933801B0933901809131019091E3
:100890003201A0913301B09134010196A11DB11D27
:1008A0008093310190933201A0933301B0933401CE
:1008B000BF91AF919F918F913F912F910F900FBE5C
:1008C0000F901F90189526E8230F0296A11DB11DC9
:1008D000D2CF1F920F920FB60F9211242F933F93F6
:1008E0004F935F936F937F938F939F93AF93BF9338
:1008F000EF93FF93E0910201F09103010995FF91BD
:10090000EF91BF91AF919F918F917F916F915F9187
:100910004F913F912F910F900FBE0F901F90189500
:100920001F920F920FB60F9211242F933F934F9364
:100930005F936F937F938F939F93AF93BF93EF9347
:10094000FF93E0910001F09101010995FF91EF9172
:10095000BF91AF919F918F917F916F915F914F91D7
:100960003F912F910F900FBE0F901F9018950F93EE
:100970001F93CF93DF93EC018EE091E099838883FE
:100980001A821B821C821D821E821F821886198673
:100990001C861D861E861F86188A198A1A8A1B8A3B
:1009A0008FEF9FEF9D8B8C8B1A861B86188E1A8E6D
:1009B000198E0E9423028C0184E090E00E9453066D
:1009C000DC0111961C921E921396DC93CE93129723
:1009D000D8011296ED91FC911397309759F4139624
:1009E0009C938E9312978D939C93DF91CF911F913F
:1009F0000F91089591838083F80193838283F5CFCB
:100A0000ECE3F1E01382128288EE93E0A0E0B0E024
:100A100084839583A683B78384E191E09183808367
:100A200085EC90E09587848784EC90E097878687B3
:100A300080EC90E0918B808B81EC90E0938B828BAB
:100A400082EC90E0958B848B86EC90E0978B868B84
:100A5000118E128E138E148E86EF91E00E94B704D1
:100A600089ED91E00C94B704789484B5826084BDDC
:100A700084B5816084BD85B5826085BD85B58160A2
:100A800085BD80916E00816080936E001092810020
:100A900080918100826080938100809181008160DB
:100AA000809381008091800081608093800080919C
:100AB000B10084608093B1008091B0008160809328
:100AC000B00080917A00846080937A0080917A00EF
:100AD000826080937A0080917A00816080937A00AE
:100AE00080917A00806880937A001092C100E09132
:100AF0004C01F0914D0182E08083E0914801F0913A
:100B000049011082E0914A01F0914B0180E180831C
:100B100010925401E0915001F091510186E08083E0
:100B2000E0914E01F0914F01808180618083E091DE
:100B30004E01F0914F01808188608083E0914E01E9
:100B4000F0914F01808180688083E0914E01F091A7
:100B50004F0180818F7D808361E087E00E94F101F9
:100B600061E088E00E94F10161E089E00E94F1010A
:100B700062E082E00E94F10161E087E00E94C3012F
:100B800061E088E00E94C30161E089E00E94C30146
:100B900084E393E0909301018093000180916900C8
:100BA0008C7F816080936900E89A82E293E0909361
:100BB000100280930F02109212021092110248EE5E
:100BC00053E060E070E040930202509303026093B0
:100BD0000402709305028FEF9FEF90930B028093B6
:100BE0000A0290930D0280930C0221E020930E02E2
:100BF0001092000210920102E0E1F3E0F093F301A1
:100C0000E093F2011092F5011092F4014093E50196
:100C10005093E6016093E7017093E8019093EE0131
:100C20008093ED019093F0018093EF012093F10107
:100C30001092E3011092E40110923B0110923A01EC
:100C4000C0E0D0E086EF91E00E943D0289ED91E0A6
:100C50000E943D022097B1F30E94F700882391F390
:100C60000E940000EFCFCF93DF93CEE0D1E0D0938E
:100C7000DA01C093D9010E94230269ED71E00E945C
:100C80009503D093F701C093F6010E94230266EF0B
:100C900071E0DF91CF910C949503EE0FFF1F05904B
:100CA000F491E02D09940F931F93CF93DF9382303B
:100CB000910510F482E090E0E0911502F0911602A7
:100CC00030E020E0B0E0A0E0309799F42115310544
:100CD00009F44AC0281B390B24303105D8F58A8124
:100CE0009B816115710589F1FB0193838283FE016C
:100CF00011C0408151810281138148175907E0F0EA
:100D00004817590799F4109761F012960C931297AF
:100D100013961C933296CF01DF91CF911F910F91C3
:100D200008950093150210931602F4CF2115310592
:100D300051F04217530738F0A901DB019A01BD01B8
:100D4000DF01F801C1CFEF01F9CF90931602809334
:100D50001502CDCFFE01E20FF31F81939193225034
:100D6000310939832883D7CF20911302309114029F
:100D7000232B41F420910601309107013093140296
:100D800020931302209104013091050121153105B2
:100D900041F42DB73EB74091080150910901241B41
:100DA000350BE0911302F0911402E217F307A0F45F
:100DB0002E1B3F0B2817390778F0AC014E5F5F4FB1
:100DC0002417350748F04E0F5F1F509314024093CD
:100DD0001302819391939FCFF0E0E0E09CCFCF93FB
:100DE000DF930097E9F0FC01329713821282A09101
:100DF0001502B0911602ED0130E020E01097A1F449
:100E000020813181820F931F2091130230911402AF
:100E10002817390709F061C0F0931402E093130218
:100E2000DF91CF910895EA01CE17DF07E8F54A81F7
:100E30005B819E0141155105B1F7E901FB83EA830E
:100E400049915991C40FD51FEC17FD0761F48081BA
:100E500091810296840F951FE9019983888382818D
:100E600093819B838A83F0E0E0E012968D919C91C0
:100E700013970097B9F52D913C911197CD010296EA
:100E8000820F931F20911302309114022817390703
:100E900039F6309751F51092160210921502B09360
:100EA0001402A0931302BCCFD383C283408151812B
:100EB000840F951FC817D90761F44E5F5F4F888173
:100EC0009981480F591F518340838A819B81938365
:100ED00082832115310509F0B0CFF0931602E0931B
:100EE00015029ECFFD01DC01C0CF13821282D7CF45
:100EF00010E0C2E6D0E004C0FE010E944D0621963B
:0A0F0000C336D107C9F7F894FFCFFC
:100F0A0022022202000017028000000000003502BF
:100F1A00000000002D018D00BA007A01EB00C90023
:020F2A00DD00E8
:107E0000112484B714BE81FFF0D085E080938100F7
:107E100082E08093C00088E18093C10086E0809377
:107E2000C20080E18093C4008EE0C9D0259A86E02C
:107E300020E33CEF91E0309385002093840096BBD3
:107E4000B09BFECF1D9AA8958150A9F7CC24DD24C4
:107E500088248394B5E0AB2EA1E19A2EF3E0BF2EE7
:107E6000A2D0813461F49FD0082FAFD0023811F036
:107E7000013811F484E001C083E08DD089C08234E0
:107E800011F484E103C0853419F485E0A6D080C0E4
:107E9000853579F488D0E82EFF2485D0082F10E0AE
:107EA000102F00270E291F29000F111F8ED06801E7
:107EB0006FC0863521F484E090D080E0DECF843638
:107EC00009F040C070D06FD0082F6DD080E0C81688
:107ED00080E7D80618F4F601B7BEE895C0E0D1E017
:107EE00062D089930C17E1F7F0E0CF16F0E7DF06D8
:107EF00018F0F601B7BEE89568D007B600FCFDCFD4
:107F0000A601A0E0B1E02C9130E011968C91119780
:107F100090E0982F8827822B932B1296FA010C0160
:107F200087BEE89511244E5F5F4FF1E0A038BF0790
:107F300051F7F601A7BEE89507B600FCFDCF97BE46
:107F4000E89526C08437B1F42ED02DD0F82E2BD052
:107F50003CD0F601EF2C8F010F5F1F4F84911BD097
:107F6000EA94F801C1F70894C11CD11CFA94CF0C13
:107F7000D11C0EC0853739F428D08EE10CD085E9AC
:107F80000AD08FE07ACF813511F488E018D01DD067
:107F900080E101D065CF982F8091C00085FFFCCF94
:107FA0009093C60008958091C00087FFFCCF809118
:107FB000C00084FD01C0A8958091C6000895E0E648
:107FC000F0E098E1908380830895EDDF803219F02E
:107FD00088E0F5DFFFCF84E1DECF1F93182FE3DFCA
:107FE0001150E9F7F2DF1F91089580E0E8DFEE27F6
:047FF000FF270994CA
:027FFE00040479
:0400000300007E007B
:00000001FF